:100000000C9480070C94B1070C94B1070C94B107C1
:100010000C94B1070C94B1070C94B1070C94B10780
:100020000C94B1070C94B1070C94B1070C94B10770
:100030000C94B1070C94B1070C94B1070C94B10760
:100040000C94B1070C94B1070C94B1070C94B10750
:100050000C94B1070C94B1070C94B1070C948F1C4D
:100060000C94B1070C94B1070C94B1070C94B10730
:100070000C94B1070C94B1070C94B1070C94B10720
:100080000C94B1070C94B1070C94B1070C94B10710
:100090000C94B1070C94B1070C94B1070C94D91CC3
:1000A0000C94B1070C94B1070C94B1070C94B107F0
:1000B0000C94B1070C94B1070C94B1070C94B107E0
:1000C0000C94B1070C94B1070C94B1070C94B107D0
:1000D0000C94B1070C94B1070C94B1070C94B107C0
:1000E0000C94B1070C94C7080C94B2080C94BE0889
:1000F0000C94A0080C94280D0C94870D0C94DF161A
:100100000C94CB080C94E30E0C94BE1A0C94DF08EC
:100110000C94061E0C94FB0E0C94B6080C94F1087B
:100120000C9449180C94D9080C94961A0C94560CFB
:100130000C94D30E0C94BA080C949D090C94E70807
:100140000C94D1080C949B080C94BD1A0C94D508FF
:100150000C94A91A0C94E3080C94C11A0C94EF0E99
:100160000C94ED080C94020F0C94C1080C94F10946
:100170000C948D130C94651400000000003E5B4F3E
:100180005B3E3E6B4F6B3E1C3E7C3E1C183C7E3CF7
:10019000181C577D571C1C5E7F5E1C00183C180005
:1001A000FFE7C3E7FF0018241800FFE7DBE7FF3095
:1001B000483A060E2629792926407F050507407F03
:1001C00005253F5A3CE73C5A7F3E1C1C08081C1C76
:1001D0003E7F14227F22145F5F005F5F06097F016C
:1001E0007F006689956A606060606094A2FFA29457
:1001F00008047E040810207E201008082A1C080825
:100200001C2A08081E101010100C1E0C1E0C303872
:100210003E3830060E3E0E06000000000000005F73
:1002200000000007000700147F147F14242A7F2A8F
:100230001223130864623649562050000807030051
:10024000001C2241000041221C002A1C7F1C2A089D
:10025000083E080800807030000808080808000000
:1002600060600020100804023E5149453E00427F74
:10027000400072494949462141494D331814127FC3
:100280001027454545393C4A494931412111090763
:100290003649494936464949291E000014000000E4
:1002A00040340000000814224114141414140041B6
:1002B00022140802015909063E415D594E7C121173
:1002C000127C7F494949363E414141227F414141AB
:1002D0003E7F494949417F090909013E4141517326
:1002E0007F0808087F00417F41002040413F017F97
:1002F000081422417F404040407F021C027F7F045F
:1003000008107F3E4141413E7F090909063E4151A7
:10031000215E7F09192946264949493203017F0197
:10032000033F4040403F1F2040201F3F4038403F98
:10033000631408146303047804036159494D4300AE
:100340007F4141410204081020004141417F0402E5
:10035000010204404040404000030708002054547C
:1003600078407F284444383844444428384444285A
:100370007F385454541800087E090218A4A49C78AD
:100380007F0804047800447D40002040403D007F09
:100390001028440000417F40007C047804787C08E9
:1003A0000404783844444438FC18242418182424BD
:1003B00018FC7C08040408485454542404043F44A2
:1003C000243C4040207C1C2040201C3C4030403CD1
:1003D00044281028444C9090907C4464544C440031
:1003E0000836410000007700000041360800020195
:1003F0000204023C2623263C1EA1A161123A404081
:10040000207A3854545559215555794122545478FD
:1004100042215554784020545579400C1E52721296
:10042000395555555939545454593955545458001F
:1004300000457C410002457D420001457C407D1223
:1004400011127DF0282528F07C5455450020545485
:100450007C547C0A097F4932494949323A44444430
:100460003A324A4848303A4141217A3A424020786B
:10047000009DA0A07D3D4242423D3D4040403D3C6C
:1004800024FF2424487E4943662B2FFC2F2BFF0991
:1004900029F620C0887E0903205454794100004485
:1004A0007D413048484A32384040227A007A0A0A70
:1004B000727D0D19317D2629292F282629292926E3
:1004C00030484D4020380808080808080808382F28
:1004D00010C8ACBA2F102834FA00007B00000814B2
:1004E0002A142222142A14085500550055AA55AA88
:1004F00055AAFF55FF55FF000000FF00101010FF28
:1005000000141414FF001010FF00FF1010F010F082
:10051000141414FC001414F700FF0000FF00FF1473
:1005200014F404FC141417101F10101F101F1414BF
:10053000141F00101010F0000000001F1010101009
:100540001F10101010F010000000FF1010101010FD
:1005500010101010FF10000000FF140000FF00FF3B
:1005600000001F10170000FC04F4141417101714D7
:1005700014F404F40000FF00F714141414141414F9
:10058000F700F7141414171410101F101F1414146C
:10059000F4141010F010F000001F101F0000001FD6
:1005A00014000000FC140000F010F01010FF10FF09
:1005B000141414FF141010101F00000000F010FF9E
:1005C000FFFFFFFFF0F0F0F0F0FFFFFF0000000082
:1005D00000FFFF0F0F0F0F0F3844443844FC4A4A06
:1005E0004A347E02020606027E027E0263554941BB
:1005F000633844443C04407E201E2006027E0202F2
:1006000099A5E7A5991C2A492A1C4C7201724C3005
:100610004A4D4D303048784830BC625A463D3E49DC
:100620004949007E0101017E2A2A2A2A2A44445F80
:10063000444440514A444040444A51400000FF0174
:1006400003E080FF000008086B6B08361236243682
:10065000060F090F060000181800000010100030E7
:1006600040FF0101001F01011E00191D1712003C6F
:100670003C3C3C000000000011007F962900010076
:100680007F9628003A0155C0021010C10141C504EF
:1006900000228040360168B00100B102B011B401FF
:1006A00002B60302023BB701C63A0155F704A9514D
:1006B0002C82B701C6E808408A00002919A533C07A
:1006C000020D0DC1024300C20100C50400480048EC
:1006D000B40100B60302023BE00F0F211C0B0E0811
:1006E000499838091103141000E10F0F2F2B0C0E3D
:1006F00006477637071104231E00B00100B3040239
:10070000000000B40100D003074218D10300071015
:10071000D2020102D3020102D4020102C005123B3F
:10072000000211C103101088C50103C60102C80CE4
:10073000003236450616377577540C00CC0100F6AA
:1007400003010100CF03008130ED0464031281E84E
:1007500003851078CB05392C003402F70120EA021A
:100760000000B00100B102001BB40100C00121C1B2
:100770000111C5023F3CC701B5360148F201002610
:100780000101E00F0F26240B0E0954A8460C17098F
:100790000F0700E10F00191B0410072A4739030651
:1007A0000630380F360100B80101C0010EB001005B
:1007B000C10410100202C006003500000102C5018C
:1007C00004D2020104CA0100EA0180B903FF835781
:1007D0007F967F96B60125C0065050013C1E08B496
:1007E000070240002A2A0D787F01F20B1616030833
:1007F00008080810041616FD03110235B2050C0C8A
:10080000003333B70135BB012BC00104C20201FF25
:10081000C30111C40120C6010FD002A4A1E00ED073
:1008200000050E150D3743470915121619E10ED0B4
:1008300000050D0C062D44400E1C1816193A0155E2
:100840007F0A06000700B1020012B40102B60400DC
:10085000202700CA0101CB0103C001137F14C50189
:10086000CCC60100C70104C80103CC0106CD011CA0
:10087000F9021515F3030A020AF603011000FA0043
:10088000FB00E2031E0254E001017F0AE001037F46
:100890000A01007F64E60303FFFFB0072400031F83
:1008A00001DF00B40803A0002E30000F00B60702DD
:1008B0000D0010100008BA010FB8020701F0010086
:1008C0007F01280011007F642900BE0606F001F0B8
:1008D0000000D0010DB00103E2013FC00122E2019E
:1008E00000B00100C0010AB00100000000000000DB
:1008F00000000000000000000000FFFF0F000004E7
:100900000062080008080003000C01030B5A0203F0
:100910000609030317100403002305030017060349
:1009200009630703090C08030C10090332221000A5
:100930001600110001011200000013000100000167
:100940003003010137020301000D80020061020142
:10095000B0C1FFFF320001000001020000010300EE
:100960003010090001000C000000900000800F0012
:100970000000100200001102EF001202000013023A
:100980008F01000500000105000002055F00010461
:10099000010004040000FFFF320007000001FFFF18
:1009A0003200000200000102000000000000000010
:1009B00000000000000000000100A4000100FFFF93
:1009C0000A00600000270800080830001402310007
:1009D0001537320004063300160E3400112235009C
:1009E0000015360007853700071438000314390056
:1009F000200090001500100010041100370229009B
:100A000046002A004600070000001200890113007A
:100A10000011FFFF96001200B90101000001020061
:100A2000000203003010090001000A0000000D0060
:100A300000000E003000610001006A00000080002C
:100A400000008100000082005F009200000193001E
:100A50000107FFFF500007000001E500F0780100EA
:100A60000001020000020300301004000000050035
:100A7000000008000702090000000A0000000C0046
:100A800000000D0000000F00000010000000110029
:100A90000700120000001300000007000100FFFF24
:100AA000C8001000901611002702FFFF320012004C
:100AB0000D00FFFF32001300001229000A002B0076
:100AC0000D00FFFF32002000000021000000300078
:100AD0000000310004043200030035000504360034
:100AE00008083700070438000303390007073C00F3
:100AF00004053D00080860000027610001006A004D
:100B000000008000000081000000820000008300DF
:100B1000000084000000850000009000100092009A
:100B2000000007003301E500008000000100010023
:100B3000000102000007030030100400000008005C
:100B40000202090000000A0000000C0000000D0075
:100B500000000F000000100000001100070012004C
:100B6000000013000000FFFF32001000B01711005A
:100B70000700FFFF0A0012003A01FFFF0A001300FE
:100B8000001A29000C00FFFF0A00300000003100AD
:100B9000050532000400350006003600070737005F
:100BA000050138000200390007073C0004073D003A
:100BB0000708600000A7610001006A000000210032
:100BC0000000200000008000000081000000820082
:100BD00000008300000084000000850000009000F9
:100BE0001000920000009300030095001001970090
:100BF00000009800000007007301FFFF32000100B1
:100C00000001020000070300301008000203090081
:100C100000000A000800100000001100050012008A
:100C2000000013000000FFFF64001000B012FFFF7F
:100C3000320011000700FFFF320012008C00130089
:100C4000001729002000FFFF3200300000003100B3
:100C500006013200010135000601360003023700AB
:100C6000000038000707390004023C0006013D007F
:100C70000301600000A76100010090003000070040
:100C80003301FFFF3200150030009A001000110000
:100C90002000100028341200020013003810FFFF5B
:100CA000280012001200FFFF28001000203413005B
:100CB0004530FFFF460030000000310002043200E2
:100CC0000703330004033400040035000104360038
:100CD0000707370005033800100639001006010029
:100CE00000010200000303003010080008080A0099
:100CF0000800600000276100010090003E019200A2
:100D0000000193000001A0000030A30010000700C4
:100D1000010007002100070023000700330007003F
:100D2000330111001A001200213113006C0014006D
:100D3000494210000008FFFF0A0011001A01FFFFDE
:100D40000A0011001A03FFFF0A0011001A07FFFF33
:100D50000A0011001A0FFFFF0A0011003A0FFFFFEF
:100D60001E000100280102000001030030100700EE
:100D70001210080003030B0000110C0000000F000C
:100D80000118150020005000010151000306520017
:100D900008045300000054000506550006045600E0
:100DA0000303570003035800100059000010070008
:100DB0001200FFFF28000700130007001700005E65
:100DC000BCE2613FDD83C29C7E20A3FD1F41009DEC
:100DD00023BE46DB65F88C11AF32CA57E9740000B8
:100DE0002100240027002A002D00300033000101DB
:100DF0000000040107010A0100002200250028006C
:100E00002B002E0031003400020100000501080112
:100E10000B0100000A0B02090C0D0E080703040168
:100E200000000000000000000000000000000000C2
:100E3000000000000000000000000000000012118F
:100E40001000000000000000000000000000000092
:100E50000000000000000000000020002300260029
:100E600029002C002F0032000001000003010601C0
:100E70000901050505050705080808080202020220
:100E80000A0A080804040404010101010101010126
:100E90000303030303030303040707070C0C0C0CF1
:100EA0000C0C0C0C020202020606060606060606DA
:100EB0000B0B0B0B0B0B0B0B010210202008081067
:100EC00020401020408002010201080402010102BA
:100ED0000408102040808040201008040201800493
:100EE00002018040201008040201080402010102EE
:100EF0000408102040800102040810204080061ED3
:100F000011241FBECFEFD1E2DEBFCDBF00E00CBF8A
:100F100012E0A0E0B2E0E4E3F6E500E00BBF02C0BF
:100F200007900D92A639B107D9F723E0A6E9B2E000
:100F300001C01D92A73EB207E1F717E0C0E8D7E075
:100F400000E006C021970109802FFE010E940B2BB3
:100F5000CF37D10780E00807A9F70E94771E0C94CD
:100F6000182B0C94000090919C03E0919D03F0914C
:100F70009E03292F209580FF14C0F894828182233C
:100F800082838181892B8183A3E2B0E01197F1F7FD
:100F90008281982B9283789487ED90E00197F1F706
:100FA0000895F8948281822382838181892B8183B1
:100FB000AFEFB0E01197F1F78281982B928378948C
:100FC0008FE090E0EBCF80919C03E0919D03F09146
:100FD0009E03F8949181982B91832281382F30952C
:100FE00023232283A7E0B0E01197F1F791819323A7
:100FF0009183A3E2B0E01197F1F790817894EFEC40
:10100000F0E03197F1F7982381E009F480E008954A
:101010000F931F93CF93DF93082FC8E0D0E011E028
:1010200081E0902F912309F480E00E94B307110F13
:101030002197B1F7F894E0919D03F0919E0391817F
:1010400080919C03809598239183E0919D03F0917A
:101050009E039281892382837894DF91CF911F919F
:101060000F91089580919C03E0919D03F0919E0360
:10107000F8949181282F20959223918378943DE7CD
:1010800043E050E0315029F1DA011197F1F79081F6
:101090009823C1F3F8949281922392839181982BA3
:1010A00091837894ABE7B7E01197F1F7F8949181C9
:1010B00092239183A3E1B1E01197F1F790819823F6
:1010C00081E009F080E07894E3E6F6E03197F1F70B
:1010D000089580E00895282F30E0F901EE5EF14F89
:1010E0009491F901E854F14F44912E58314FF90190
:1010F0002491222309F435C0992311F191509231A2
:10110000F8F4E92FF0E08827E757F74F8F4F0C945A
:101110000B2BBA08BE089B08B208B608A008C10885
:10112000C708CB08D108D508D908DF08E308A0080C
:10113000E708ED08F108809180008F7780938000A8
:10114000E22FF0E0EE0FFF1FE850F24FA591B491AF
:101150008FB7F894EC91611148C040954E234C93A1
:101160008FBF0895809180008F7DE8CF80918000AF
:10117000877FE4CF84B58F7784BDE2CF84B58F7D40
:10118000FBCF8091B0008F778093B000D9CF809152
:10119000B0008F7DF9CF809190008F778093900081
:1011A000CFCF809190008F7DF9CF80919000877F85
:1011B000F5CF8091A0008F778093A000C1CF809160
:1011C000A0008F7DF9CF8091A000877FF5CF80911F
:1011D00020018F7780932001B3CF809120018F7DF4
:1011E000F9CF80912001877FF5CF4E2BB8CFCF93D9
:1011F000DF9390E0FC01E854F14F24918E58914F19
:10120000FC0184918823D1F090E0880F991FFC01A4
:10121000E252F24FA591B491FC01E850F24FC59112
:10122000D49161110EC09FB7F8948C91E22FE09594
:101230008E238C932881E223E8839FBFDF91CF9197
:1012400008958FB7F894EC91E22BEC938FBFF6CF13
:10125000863308F0865320917B00982F9870277F63
:10126000922B90937B008770806480937C008091A8
:101270007A00806480937A0080917A0086FDFCCFAA
:10128000809178009091790008953FB7F89480910B
:10129000970390919803A0919903B0919A0326B572
:1012A000A89B05C02F3F19F00196A11DB11D3FBF9E
:1012B000BA2FA92F982F8827BC01CD01620F711D6D
:1012C000811D911D42E0660F771F881F991F4A9567
:1012D000D1F708958F929F92AF92BF92CF92DF92F3
:1012E000EF92FF926B017C010E9445094B015C016A
:1012F000C114D104E104F104B9F00E944509681950
:1013000079098A099B09683E73408105910580F33C
:1013100021E0C21AD108E108F10888EE880E83E0C6
:10132000981EA11CB11CE4CFFF90EF90DF90CF90EE
:10133000BF90AF909F908F900895AF92BF92CF9241
:10134000DF92EF92FF920F931F93CF93DF936C0185
:101350007B018B01040F151FEB015E01AE18BF0866
:10136000C017D10759F06991D601ED91FC91019018
:10137000F081E02DC6011995892B79F7C501DF9120
:10138000CF911F910F91FF90EF90DF90CF90BF9082
:10139000AF9008952091BD02260F3327331F2132CD
:1013A0003105ECF42091E102FC0190E080E0243072
:1013B00069F082E00895A091BD022191AC014356ED
:1013C0005D4FA40FB52FB11D2C930196861798F38E
:1013D0008091BD02680F6093BD0280E0089581E0B6
:1013E000089508958FEF9FEF08958FEF9FEF089571
:1013F0008091960290E09195819591090895CF93FF
:10140000DF93CB01EA01642F0E94CA09CE01DF916C
:10141000CF910895CF93DF931F92CDB7DEB7698345
:1014200061E0CE0101960E94CA0981E090E00F9030
:10143000DF91CF9108950895FC016370668B8481DC
:10144000958126813781613039F0633029F09187A9
:101450008087338722870895318720879387828703
:1014600008952F923F924F925F926F927F928F9248
:101470009F92AF92BF92CF92DF92EF92FF920F9323
:101480001F93CF93DF93CDB7DEB76A970FB6F8946B
:10149000DEBF0FBECDBF9A8F898F7A8369834A01E1
:1014A000D22E18870F833701BC2CDC0159962D9161
:1014B0003C915A972115310509F015C118968D9167
:1014C0009C911997681779070CF0D7C11A968D91DE
:1014D0009C91481759070CF0D0C14C2C512CB6E008
:1014E000CB9E600D711D11247C876B871616170625
:1014F0000CF0C3C1EA2DF0E0FA87E98793E0EE0F24
:10150000FF1F9A95E1F7F88BEF87CF01840F951FA6
:10151000181619060CF0B1C1A98DBA8D58968C9188
:10152000811104C0BFEABD1508F4D394A98DBA8D0A
:10153000ED91FC9111970284F385E02DCD01199571
:10154000B5E0DB9EC0011124E981FA81FC83EB83C5
:10155000312C212C9C0128583E4F388F2F8B4A2D3F
:1015600050E05E8B4D8BEF89F88DE20DF31D4491B9
:101570009E828D82D12CC12C69817A81620D731D6E
:101580007A8B698B842F90E09C8B8B8BE98DFA8D05
:10159000A081B18140FF82C0F1E0BF126FC0AF12E5
:1015A0006DC01C96ED91FC912F813885A4014C0DE6
:1015B0005D1D69897A89898D9A8D1995EB89FC89D8
:1015C000F595E7954E2F5FEFC51AD50A6D817E819F
:1015D0008D899E89680F791F7E836D8398E0C91677
:1015E000D10481F6AFEF2A1A3A0AEB81FC81E40DAF
:1015F000F51DFC83EB83F5E02F16310409F0B3CF22
:101600002F81388526153705B9F0A98DBA8DED9152
:10161000FC91B1E0BB1257C0AB1255C069817A8111
:101620006B5F7F4F0088F189E02D830128E030E077
:10163000A401898D9A8D1995A98DBA8DED91FC9192
:1016400011970688F789E02DCD016A960FB6F894B8
:10165000DEBF0FBECDBFDF91CF911F910F91FF90E5
:10166000EF90DF90CF90BF90AF909F908F907F9042
:101670006F905F904F903F902F9019941E96ED9130
:10168000FC91EF80F88409851A8592014D815E8175
:101690006B817C81898D9A8D199590CF2F813885AA
:1016A0002615370509F48ACF31E0B31207C0A3121B
:1016B00005C01C96ED91FC91930178CF1E96ED919B
:1016C000FC917301E0CF6B857C85641975090684F4
:1016D000F785E02D73010F8518899201A401898D8A
:1016E0009A8D1995A9CFF901349694913297459125
:1016F0005491D91AB7E0DB9E400D511D1124F90118
:10170000259134913C8B2B8BFA0125903490FA0172
:101710003296749031963491398B3296649031962A
:10172000449041E04C1518F04A1508F07FC0662D32
:10173000062C000C770B7C836B83842D042C000C0F
:10174000990B9E838D83A98DBA8DED91FC91119794
:101750000284F385E02DCD011995512CD12CC12C9B
:10176000EA2DF0E0FA87E9872B2D30E03C872B87C4
:10177000A401440D511D47FC5A95588F4F8B698128
:101780007A81660D711D67FC7A957E876D877989F0
:10179000C71608F051CF2C2D30E04D815E81420FED
:1017A000531FA985BA854A9FC0014B9F900D5A9F30
:1017B000900D1124FC01E80DF91DF88BEF87852DA4
:1017C000612C4F89588D420F531F5E8B4D8B6714D0
:1017D00008F050C044244394480E877041F4C1017E
:1017E0000196EB89FC89E20DF31DD4901C01D7FE14
:1017F00019C0A98DBA8DED91FC91662D70E0B1E014
:10180000BB1219C0AB1217C02D853E85620F731F26
:101810000484F585E02D2F8138854D895E89898D79
:101820009A8D1995DD0C6394842DD1CF1E821D8273
:101830001C821B8288CF4B815C81640F751FAB8536
:10184000BC856A9FC0016B9F900D7A9F900D1124FB
:1018500069817A81680F791F0684F785E02DEF8012
:10186000F88409851A859D014F855889898D9A8D3F
:101870001995D8CF570CC3948ACF6A960FB6F894AF
:10188000DEBF0FBECDBFDF91CF911F910F91FF90B3
:10189000EF90DF90CF90BF90AF909F908F907F9010
:1018A0006F905F904F903F902F9008958F929F92EE
:1018B000AF92CF92EF92FF920F931F93CF93DF934C
:1018C000EC01262F898D9A8D009709F051C06A305E
:1018D000D1F41D861C868D8948E0849F90011124D7
:1018E0008E859F85820F931F9F878E8781E090E072
:1018F000DF91CF911F910F91FF90EF90CF90AF901C
:101900009F908F9008956D3089F3CC88AD888F8932
:101910008823C1F08C859D8536E0C39E800D911D86
:101920001124488559854817590764F44E855F8509
:101930001D861C8638E0A39EC0011124840F951FCC
:101940009F878E87EA88FB88088919894E855F857D
:101950006C857D85CE010E94310A2C898C859D8500
:1019600046E0249F800D911D11249D878C87BECF5A
:101970006A3069F41D861C86FC013896E4912D8935
:101980008E859F85E29F800D911D1124ADCF6D3016
:1019900009F4ACCFFC0134963491631708F4A6CF58
:1019A0003296E491E61708F4A1CFFC0132968590B7
:1019B0009490462F431B342F47E0349F800C911C9A
:1019C0001124F401329634913196E4913323A9F134
:1019D000EE2399F1CC88F4013596E491AD884F89D6
:1019E000442301F10E2E000CFF0BE30FF11DCE9EE0
:1019F000A001CF9E500D11246C857D85460F571F89
:101A000068857985641775076CF44E855F851D863A
:101A10001C86FC013896E491AE9E400D511D1124A8
:101A20005F874E87EA88FB88088919894E855F851C
:101A30006C857D85CE010E94310AF4013496E491D3
:101A40002C898C859D85E29F800D911D11248DCF61
:101A50006F927F928F929F92AF92BF92CF92DF92BE
:101A6000EF92FF920F931F93CF93DF93EC016B01E3
:101A70005A0139014801E881F9810284F385E02D9A
:101A80001995E881F9810288F389E02D8701930196
:101A9000A501B601CE011995A501480D591D41506A
:101AA0005109E881F9810288F389E02D9301B6019B
:101AB000CE011995E881F9810088F189E02D940122
:101AC000A501B601CE011995C60CD71CB60161500F
:101AD0007109E881F9810088F189E02D9401A5015F
:101AE000CE011995E881F9810688F789E02DCE01AC
:101AF000DF91CF911F910F91FF90EF90DF90CF90EA
:101B0000BF90AF909F908F907F906F9019946F923D
:101B10007F928F929F92AF92BF92CF92DF92EF927D
:101B2000FF920F931F93CF93DF935C01EB016A0148
:101B3000490138018701DC01ED91FC9162177307BF
:101B400019F5641675062CF0962D872D3A01C92ECD
:101B5000D82E9601261937092F5F3F4F048CF58D3B
:101B6000E02DA301BE01C5011995DF91CF911F9111
:101B70000F91FF90EF90DF90CF90BF90AF909F902C
:101B80008F907F906F9008954615570591F4261712
:101B9000370724F0892D4B01C22FD82F9E01281919
:101BA00039092F5F3F4F068CF78DE02DA601B40158
:101BB000DACF0284F385E02D1995D501ED91FC91E2
:101BC0000488F589E02D83019401A601BE01C501B9
:101BD0001995D501ED91FC910688F789E02DC50195
:101BE000DF91CF911F910F91FF90EF90DF90CF90F9
:101BF000BF90AF909F908F907F906F901994EF92CD
:101C0000FF920F931F93DC011A960D911C911B9765
:101C100018962D913C911997ED91FC9100A0F1A19E
:101C2000E02D7B0150E040E070E060E019951F91ED
:101C30000F91FF90EF9008954F925F926F927F9275
:101C40008F929F92AF92BF92CF92DF92EF92FF92CC
:101C50000F931F93CF93DF936C012B015A0139012E
:101C60004801DC01ED91FC910284F385E02D19958A
:101C7000E201640C751CD601ED91FC91C615D705E7
:101C80005CF40088F189E02D87019401A501BE0173
:101C9000C60119952196EFCF0688F789E02DC60178
:101CA000DF91CF911F910F91FF90EF90DF90CF9038
:101CB000BF90AF909F908F907F906F905F904F906C
:101CC00019948F929F92AF92BF92CF92DF92EF9230
:101CD000FF920F931F93CF93DF93EC015B014A01B7
:101CE0006901E881F9810284F385E02D1995950158
:101CF0002C0D3D1D21503109E881F9810488F589B9
:101D0000E02D78018401A401B501CE011995E88187
:101D1000F9810688F789E02DCE01DF91CF911F91DF
:101D20000F91FF90EF90DF90CF90BF90AF909F907A
:101D30008F9019948F929F92AF92BF92CF92DF9221
:101D4000EF92FF920F931F93CF93DF93EC015B0110
:101D50004A0169017801E881F9810284F385E02D67
:101D60001995C80CD91C860101501109E881F98127
:101D70000488F589E02D9501A401B501CE011995DE
:101D8000E881F9810688F789E02DCE01DF91CF91B6
:101D90001F910F91FF90EF90DF90CF90BF90AF9089
:101DA0009F908F901994EF92FF920F931F93DC01F5
:101DB000ED91FC9100A0F1A1E02D19951F910F91DB
:101DC000FF90EF9008950F931F93DC01ED91FC912C
:101DD000068CF78DE02D19951F910F9108950F93A3
:101DE0001F93DC01ED91FC91048CF58DE02D19958C
:101DF0001F910F910895DC01ED91FC910084F18514
:101E0000E02D19942F923F924F925F926F927F92A2
:101E10008F929F92AF92BF92CF92DF92EF92FF92FA
:101E20000F931F93CF93DF9300D000D0CDB7DEB7D1
:101E30003C016A013E832D83FC82EB825801A41A87
:101E4000B50AB7FE03C0B194A194B1088D809E80FD
:101E5000861A970A97FE03C09194819491088A1478
:101E60009B045CF0902F812F0D811E819D838E83BA
:101E70009C2D8D2D6B01692F782F0C151D055CF0A5
:101E80009D818E817E836D83692F782F902F812F86
:101E90008601C92ED82E1601201A310A2B012D8158
:101EA0003E81421A530A57FE03C05194419451088F
:101EB000710137FE03C03FEFE31AF30AF594E7948C
:101EC0008D819E81861797075CF5A1E0B0E0BA830B
:101ED000A983C016D1064CF1D301ED91FC91048485
:101EE000F585E02D2B813C81A8016D817E818A14CE
:101EF0009B041CF04D815E81B801C3011995E41863
:101F0000F508F7FE0AC02D813E8189819A81280F4C
:101F1000391F3E832D83E20CF31C0F5F1F4FD9CF77
:101F20002FEF3FEF3A832983D4CF26960FB6F8944C
:101F3000DEBF0FBECDBFDF91CF911F910F91FF90FC
:101F4000EF90DF90CF90BF90AF909F908F907F9059
:101F50006F905F904F903F902F9008950F931F9335
:101F6000CF93DF93EC018B01FE0184913196649154
:101F700022968F3799F470E090E080E00E946A0921
:101F800060E070E06E5F7F4F061B170B10161106A6
:101F90005CF3DF91CF911F910F9108958B988A98F0
:101FA00090910201977890930201A5989EB1977C39
:101FB0009EB94091020190E09C0155E0220F331F31
:101FC0005A95E1F72076242B209302014EB19C0113
:101FD000220F331F220F331F2073242B2EB944B33B
:101FE0009C01220F331F2072242B24BB4EB19C0175
:101FF00035952795359527952870242B2EB9209156
:102000000201A3E095958795AA95E1F78871822B47
:10201000809302018998899A50E040E0461708F0C1
:1020200045C0FE01E40FF51FE4918A9A80910201F8
:10203000877880930201A5988EB1877C8EB97091C4
:1020400002018E2F90E09C01E5E0220F331FEA95FC
:10205000E1F72076272B209302017EB19C01220F0D
:10206000331F220F331F2073272B2EB974B39C010B
:10207000220F331F2072272B24BB7EB19C01359584
:102080002795359527952870272B2EB9E0910201C9
:1020900023E0959587952A95E1F788718E2B80939B
:1020A00002018998899A4F5F5F4FB8CFC60FD11D43
:1020B0008B9A67CF8B988A9820910201277820937A
:1020C0000201A5982EB1277C2EB970910201292F0B
:1020D00030E0F901A5E0EE0FFF1FAA95E1F7E076E9
:1020E000E72BE09302017EB1F901EE0FFF1FEE0F27
:1020F000FF1FE073E72BEEB974B3F901EE0FFF1F7A
:10210000E072E72BE4BB7EB1F901F595E795F59513
:10211000E795E870E72BEEB970910201E3E03595A1
:102120002795EA95E1F72871272B209302018998DA
:10213000899A20910201277820930201A5982EB157
:10214000277C2EB9709102019C01F5E0880F991F40
:10215000FA95E1F78076872B809302017EB1C90161
:10216000880F991F880F991F8073872B8EB974B3BE
:10217000C901880F991F8072872B84BB7EB1C9016A
:1021800095958795959587958870872B8EB98091C1
:102190000201F3E035952795FA95E1F72871282B90
:1021A000209302018998899A8A9AFA01615008F469
:1021B0003EC0819190910201977890930201A59879
:1021C0009EB1977C9EB94091020190E09C0155E040
:1021D000220F331F5A95E1F72076242B209302011A
:1021E0004EB19C01220F331F220F331F2073242B6B
:1021F0002EB944B39C01220F331F2072242B24BB21
:102200004EB19C0135952795359527952870242B3F
:102210002EB92091020133E0959587953A95E1F723
:102220008871822B809302018998899ABFCF8B9AFB
:1022300008958B988A98E2E0F1E020812778208346
:10224000A5982EB1277C2EB9A081292F30E0A901B5
:10225000B5E0440F551FBA95E1F740764A2B40830D
:10226000AEB1A901440F551F440F551F40734A2BAF
:102270004EB9A4B3A901440F551F40724A2B44BB69
:10228000AEB1A901559547955595479548704A2B8C
:102290004EB9408153E0359527955A95E1F728715D
:1022A000242B20838998899A208127782083A598D8
:1022B0002EB1277C2EB940819C01A5E0880F991F83
:1022C000AA95E1F78076842B80834EB1C901880FEF
:1022D000991F880F991F8073842B8EB944B3C9014D
:1022E000880F991F8072842B84BB4EB1C9019595CC
:1022F0008795959587958870842B8EB98081B3E0FA
:1023000035952795BA95E1F72871282B2083899870
:10231000899A8A9A808187788083A5988EB1877CF4
:102320008EB94081872F90E09C0155E0220F331F2A
:102330005A95E1F72076242B20834EB19C01220F81
:10234000331F220F331F2073242B2EB944B39C015B
:10235000220F331F2072242B24BB4EB19C013595D4
:102360002795359527952870242B2EB92081A3E039
:1023700095958795AA95E1F78871822B8083899836
:10238000899A808187788083A5988EB1877C8EB961
:102390004081CB019B01B5E0220F331FBA95E1F7D5
:1023A0002076242B20834EB19B01220F331F220F56
:1023B000331F2073242B2EB944B39B01220F331FEC
:1023C0002072242B24BB4EB19C0135952795359561
:1023D00027952870242B2EB92081A3E09595879509
:1023E000AA95E1F78871822B80838998899A8B9AC4
:1023F000089581E080939B03E1E0F1E080818867AC
:1024000080839D9A8DB188638DB9809A819A829AD2
:10241000839A849A8B9A889A899A8C9A62E370E05C
:1024200080E090E00E946A098C9864E670E080E0A9
:1024300090E00E946A098C9A64E670E080E090E087
:102440000E946A0970E060E080EB90E00C94191142
:10245000EF92FF920F931F93CF93DF93EC01E62E41
:1024600080919B03811102C00E94F9118B988A9878
:1024700080910201877880930201A5988EB1877CB4
:102480008EB980910201809302018EB18EB984B31E
:1024900084BB8EB18EB9809102018093020189982C
:1024A000899A80910201877880930201A5988EB164
:1024B000877C8EB920910201CE0115E0880F991F0B
:1024C0001A95E1F78076822B809302012EB1CE011E
:1024D000880F991F880F991F8073822B8EB924B3A0
:1024E000CE01880F991F8072822B84BB2EB1CE0142
:1024F00095958795959587958870822B8EB9809153
:10250000020153E0D595C7955A95E1F7C871C82BDC
:10251000C09302018998899A8A9A809101018778EB
:10252000809301019D988DB1877C8DB961E070E049
:1025300080E090E00E946A0961E070E080E090E055
:102540000E946A09889A889888988898D091000192
:102550001CB102B3CCB1F0900001889A61E070E048
:1025600080E090E00E946A09889A88988898889804
:10257000409100015CB1E2B39CB1F0910001889AF6
:10258000EA946FEFE612D8CF889A8B9A8091010176
:102590008867809301019D9A8DB188638DB984E02D
:1025A000C89F900111242072332788E0F89EB00163
:1025B0001124607C7727262B602F70E07595679536
:1025C00060717727262B612F70E07595679575955B
:1025D00067956C707727262B6D2F70E0B5E07595A9
:1025E0006795BA95E1F763707727262B64E0969F8D
:1025F000C0011124807298E0F99FB0011124607C21
:10260000862BE695E0718E2B569556955C70852B42
:1026100050E0C5E055954795CA95E1F74370842B86
:10262000922FDF91CF911F910F91FF90EF9008951E
:102630000F931F93CF93DF938C0160E00E942812C9
:10264000EC0161E0C8010E9428128C01BE0190E0FB
:1026500080E0CB017727662730E020E0602B712BEC
:10266000822B932BDF91CF911F910F910895FF92B1
:102670000F931F93CF93DF938C0160E00E94281289
:10268000EC0161E0C8010E942812F82E62E0C80146
:102690000E942812AE0170E060E0742F6627552773
:1026A000442700E030E020E0402B5F29622B732BB1
:1026B000292F30E0C901B0E0A0E08A019B01082B7E
:1026C000192B2A2B3B2BC901B801DF91CF911F9108
:1026D0000F91FF9008950F931F93CF93DF93EC0119
:1026E0008B01FE0185919491FE01329624966591AD
:1026F00074918F3F980771F490E080E00E946A091E
:10270000045011091016110664F3DF91CF911F9147
:102710000F9108950E941911F3CFFC01262F358DDA
:10272000868D82958170982F9627692F70E072A30D
:1027300061A330FF0CC0821307C080E290E050E03C
:1027400040E060E00C945A1081E290E0F8CF878D71
:1027500090A1833927E7920741F058F4843521E0AE
:10276000920791F080329445C1F4626081E094E078
:1027700012C0863223E99207C1F3893025EB920714
:10278000A1F38532924949F4660F771F660F771FD0
:10279000636187E090E00C94191181E690E0FBCF33
:1027A0008F929F92AF92BF92CF92DF92EF92FF9261
:1027B0000F931F93CF93DF9300D01F92CDB7DEB757
:1027C0007C014B015A016901FC01878D90A1863281
:1027D000954151F4F701868980FF06C0C801841B2A
:1027E000950B81F50F5F1F4FF701858D80FF31C07D
:1027F00085A599828A82DB82CC82AE014F5F5F4FD2
:1028000064E090E00E945A10F70181A9B982AA827F
:102810001B830C83AE014F5F5F4F64E090E00E942A
:102820005A100F900F900F900F90DF91CF911F9142
:102830000F91FF90EF90DF90CF90BF90AF909F905F
:102840008F9008952617370779F6C80ED91E8A018A
:10285000CBCFB40187A190A50E941911B501F70152
:1028600081A592A50E941911C814D90419F40A155A
:102870001B05B9F2F701858D85FF08C0868980FFA9
:102880001EC0102F0027A02AB12A8501B401F7012C
:1028900085A596A50E941911B501F70181A992A9F4
:1028A0000E941911B601F70187A590A90E9419117C
:1028B000B801F70183A994A90E941911B2CFDC2CA9
:1028C000CC248C289D286401E1CF2F923F924F9217
:1028D0005F926F927F928F929F92AF92BF92CF92B0
:1028E000DF92EF92FF920F931F93CF93DF9300D06D
:1028F0001F921F92CDB7DEB79D838C838091070313
:10290000882349F0C701880F991F8E739927E1EC3E
:10291000EE22E82AF92A37FF05C0620F731F3195AE
:1029200021953109260F371F77FF02C070E060E064
:10293000EC81FD8180859185281739070CF4C90148
:102940006C01C61AD70A17FF05C0400F511F119519
:1029500001951109040F151F57FF02C050E040E018
:10296000EC81FD8122853385021713070CF4980151
:102970005901A41AB50A8901015011099C0121507D
:1029800031098C819D810E94D0138B988A98EC81AB
:10299000FD8153A544A580910201877880930201AF
:1029A000A5988EB1877C8EB960910201842F90E04A
:1029B0009C01A5E0220F331FAA95E1F72076262B74
:1029C000209302016EB19C01220F331F220F331F8F
:1029D0002073262B2EB964B39C01220F331F207263
:1029E000262B24BB6EB19C013595279535952795EF
:1029F0002870262B2EB92091020133E095958795FA
:102A00003A95E1F78871822B809302018998899A1F
:102A100080910201877880930201A5988EB1877C0E
:102A20008EB960910201852F942F9C0145E0220F01
:102A3000331F4A95E1F72076262B209302014EB1F1
:102A40009C01220F331F220F331F2073242B2EB91A
:102A500044B39C01220F331F2072242B24BB4EB1A0
:102A60009C0135952795359527952870242B2EB9EF
:102A700020910201E3E095958795EA95E1F7887149
:102A8000822B809302018998899A8A9ACA14DB045E
:102A90002CF09A2D8B2D5601C92ED82E2F2D30E0DB
:102AA000890185E0000F111F8A95E1F70076C901C1
:102AB000880F991F880F991F182F1073C901880F4D
:102AC000991FB82FB072C9019595879595958795EF
:102AD000982F987073E0359527957A95E1F7822FB6
:102AE0008871A701E5E0440F551FEA95E1F74076AC
:102AF0009701220F331F220F331F522F5073B7013C
:102B0000660F771F60729701359527953595279544
:102B1000722F78709701E3E035952795EA95E1F7F4
:102B2000A22FA8712F2D287F30E04901880C991C15
:102B3000880C991CF82DF073F9834901880C991CB5
:102B4000E82DE072EA8349019594879495948794DF
:102B5000F82DF870FB83E3E035952795EA95E1F7CA
:102B6000E22FE8712E2E9701F3E036952795FA951E
:102B7000E1F72C7F30E04901880C991C880C991CE6
:102B8000F82DF0733F2E2901440C551CE42DE07202
:102B90004E2E49019594879495948794F82DF8705A
:102BA0005F2EF3E035952795FA95E1F7E22FE8716E
:102BB0006E2EEE0CEE0CEE0CF12C9701220F331F53
:102BC000220F331FF22FF0737F2E9701220F331F36
:102BD0002072F701F595E795F595E795E870F3E034
:102BE000F594E794FA95E1F73E2D3871E32E1C1425
:102BF0001D040CF0ABC0309108034501332309F4E8
:102C000063C030910201377830930201A5983EB13C
:102C1000377C3EB930910201309302013EB1F98117
:102C20003F2B3EB934B3FA813F2B34BB3EB1FB811D
:102C30003F2B3EB93091020132293093020189982D
:102C4000899A30910201377830930201A5983EB1FC
:102C5000377C3EB930910201309302013EB13329F5
:102C60003EB934B3342934BB3EB135293EB9309135
:102C700002013629309302018998899A3091020124
:102C8000377830930201A5983EB1377C3EB9309138
:102C90000201309302013EB137293EB934B3322BE1
:102CA00034BB3EB13E2B3EB9309102013E293093F8
:102CB00002018998899A31E0831A910809F0A1CF1D
:102CC000F1E0CF1AD10893CF3091020137783093D9
:102CD0000201A5983EB1377C3EB930910201302BFC
:102CE000309302013EB1312B3EB934B33B2B34BBA0
:102CF0003EB1392B3EB930910201382B309302019D
:102D00008998899A30910201377830930201A59809
:102D10003EB1377C3EB930910201342B3093020131
:102D20003EB1352B3EB934B3362B34BB3EB1372BD5
:102D30003EB9309102013A2B309302018998899A69
:102D4000F1E08F1A910809F0BFCFBACF8B9AEC81CE
:102D5000FD81858D80FF0AC0878D90A186329541C7
:102D6000B1F4EC81FD81868980FF11C0EC81FD8189
:102D700002851385015011092085318521503109C3
:102D800050E040E070E060E0CF010E94D0130F906F
:102D90000F900F900F900F90DF91CF911F910F9197
:102DA000FF90EF90DF90CF90BF90AF909F908F906B
:102DB0007F906F905F904F903F902F900895EF928B
:102DC000FF920F931F93CF93DF937C01E90177FD6F
:102DD0004DC157FD4BC1FC0180859185681779076E
:102DE0000CF044C182859385481759070CF03EC109
:102DF00080910703882341F0C901880F991F8E73C2
:102E00009927C17CC82BD92B8A019B01C7010E943D
:102E1000D01380910803882309F42FC18B988A98D6
:102E2000F70143A554A580910201877880930201A0
:102E3000A5988EB1877C8EB960910201852F90E0B4
:102E40009C0175E0220F331F7A95E1F72076262B3F
:102E5000209302016EB19C01220F331F220F331FFA
:102E60002073262B2EB964B39C01220F331F2072CE
:102E7000262B24BB6EB19C0135952795359527955A
:102E80002870262B2EB920910201B3E095958795E5
:102E9000BA95E1F78871822B809302018998899A0B
:102EA00080910201877880930201A5988EB1877C7A
:102EB0008EB960910201CA019C0115E0220F331FF7
:102EC0001A95E1F72076262B209302014EB19C0142
:102ED000220F331F220F331F2073242B2EB944B32C
:102EE0009C01220F331F2072242B24BB4EB19C0166
:102EF00035952795359527952870242B2EB9209147
:102F0000020173E0959587957A95E1F78871822B98
:102F1000809302018998899A8A9A80910201877820
:102F200080930201A5988EB1877C8EB92091020111
:102F30008D2F887F90E0209302014EB19C01220FDB
:102F4000331F220F331F2073242B2EB944B39C014F
:102F5000220F331F2072242B24BB4EB19C013595C8
:102F60002795359527952870242B2EB9209102019D
:102F7000B3E095958795BA95E1F78871822B809398
:102F800002018998899A80910201877880930201D1
:102F9000A5988EB1877C8EB920910201CE01D3E035
:102FA00096958795DA95E1F78C7F90E02093020162
:102FB0004EB19C01220F331F220F331F2073242B8D
:102FC0002EB944B39C01220F331F2072242B24BB43
:102FD0004EB19C0135952795359527952870242B62
:102FE0002EB92091020163E0959587956A95E1F7E6
:102FF0008871822B809302018998899A80910201BD
:10300000877880930201A5988EB1877C8EB98091D4
:103010000201CC0FCC0FCC0FD0E0809302012EB177
:10302000CE01880F991F880F991F8073822B8EB94C
:1030300024B3CE01880F991F8072822B84BB2EB1DE
:10304000CE0195958795959587958870822B8EB939
:1030500080910201A3E0D595C795AA95E1F7C871C3
:10306000C82BC09302018998899A8B9ADF91CF91DE
:103070001F910F91FF90EF900895BE01F70183A576
:1030800094A5DF91CF911F910F91FF90EF900C9439
:103090001911EF92FF920F931F93CF93DF9300D0FC
:1030A00000D000D01F92CDB7DEB77C01862F837091
:1030B000F701868B962F917060FFE3C026813781E0
:1030C000F70131872087992309F4DEC024813581F7
:1030D000F70133872287823009F4DBC0833009F49B
:1030E000DAC0813009F4D3C088E48A87F701858D7E
:1030F000968D90FF03C02A8520582A8791FF04C02F
:103100002A8530E423272A8793FF04C02A8538E0E4
:1031100023272A87F701278D30A180FF00C12431A2
:10312000F8E63F0709F0B9C09A85892F88728A8727
:103130001F82892F85958074282F2260892F90E027
:103140009595879580729927822B88878BE389874D
:10315000AE01495F5F4F63E086EB90E00E945A103A
:103160002AE230E0F70130A727A38BE290E092A794
:1031700081A74CE250E054A743A736A725A730AB60
:1031800027A792AB81AB94AB83ABAE01465F5F4F99
:1031900061E086E390E00E945A108A8590E0F70192
:1031A00094A383A3F701868980FF1CC0858D968D2B
:1031B00092FD18C087A190A521A532A530A727A30D
:1031C00092A781A785A596A521A932A936A725A7EB
:1031D00092AB81AB87A590A923A934A930AB27A7CF
:1031E00094AB83ABF701028513850150110920854B
:1031F00031852150310950E040E070E060E0C701C6
:103200000E94D013F70166817781878D90A120E01D
:103210008732F3E99F0709F420E2F701358D30FF8B
:1032200039C119821A827B836C831D822E83AE0181
:103230004F5F5F4F66E083E390E00E945A1019826F
:103240001A82AE014F5F5F4F62E087E390E00E9419
:103250005A10F701858D80FF07C050E040E060E024
:1032600083E190E00E945A102A960FB6F894DEBFD0
:103270000FBECDBFDF91CF911F910F91FF90EF90C7
:103280000895248135811CCF2681378121CF88E2A2
:103290002CCF88E92ACF88EF28CF273243E934079B
:1032A00089F41F8281E388878A8585958595859530
:1032B000859588708987AE01495F5F4F63E080EC38
:1032C00090E04CCF233689E1380749F02138E4E912
:1032D0003E0729F02131F5E13F0709F041CF8A850A
:1032E00087FF02C081608A878A8586FF02C082606C
:1032F0008A878A858F73233649E1340731F0213874
:1033000084E9380721F48A858F728A8729CF213191
:10331000354109F025CF8A858F7E806CF6CF6A858E
:10332000862F062E000C990B2339F7E73F0751F043
:10333000A8F52435E1E03E0709F45CC02032F4E54D
:103340003F07A1F540E052E0F70150A747A341E055
:1033500052E052A741A742E052E054A743A740E100
:1033600052E056A745A741E152E050AB47A742E1E2
:1033700052E052AB41AB43E152E054AB43AB882740
:1033800090782632F3E93F0721F02032344509F0E6
:1033900071C067FD846060E071E36EC0263243E96E
:1033A000340781F22930E5EB3E0761F220E230E09C
:1033B000F70130A727A321E230E032A721A722E2BC
:1033C00030E034A723A720E530E036A725A721E584
:1033D00030E030AB27A722E530E032AB21AB23E56C
:1033E00030E034AB23ABBC0166277078776280E6AF
:1033F00090E046C027E330E0F70136A725A726E393
:1034000030E030AB27A729E330E032AB21AB28E333
:1034100030E034AB23AB20E230E030A727A321E239
:1034200030E032A721A722E230E034A723A7F4E05E
:103430006F9FB0011124662771708827927088628F
:10344000682B792B81E090E00E9419118A85682F02
:1034500070E075956795759567956870772783FD1A
:1034600070616063F70174A363A383E090E00E943E
:10347000191198CE60E072E6682B792B80E094E019
:103480000E9419116A85F4E06F9FB001112466272C
:103490007170D8CF8339F7E79F07D9F1F0F4803204
:1034A00044E59407B1F18338E7E79E0731F18435AD
:1034B0009140F1F46150710981E390E00E9419118B
:1034C00070E060E082E390E00E94191170E060E03B
:1034D00083E390E00E941911C7CE863223E9920758
:1034E000C1F0893045EB9407A1F08532924911F380
:1034F000F70161A172A1626003C0F70161A172A12D
:1035000081E690E00E94191170E060E08AE690E0A8
:10351000E1CFF70161A172A1626081E094E00E94B5
:10352000191170E060E084E094E0D4CFEF92FF9254
:103530000F931F93DC01ED91FC9100A0F1A1E02D10
:10354000780101E010E019951F910F91FF90EF9025
:103550000895EF92FF920F931F93DC01ED91FC9180
:1035600000A0F1A1E02D7801890121E030E019955A
:103570001F910F91FF90EF900895089590E080E0E3
:103580000895EF92FF920F931F93DC011A960D910D
:103590001C911B9718962D913C911997ED91FC91D8
:1035A00000A0F1A1E02D7B0150E040E070E060E080
:1035B00019951F910F91FF90EF900895FC010190D4
:1035C0000020E9F73197AF01481B590BBC0182EB92
:1035D00093E00C949D098F929F92AF92BF920F93AC
:1035E0001F93CF93DF93CDB7DEB7A1970FB6F894B3
:1035F000DEBF0FBECDBF19A2423008F44AE08E01F3
:103600000F5D1F4F842E912CB12CA12CA50194018C
:103610000E94CA28E62FB901CA01EA30F4F4E05D3D
:10362000D801EE938D01232B242B252B79F790E0E5
:1036300080E0109719F0CD010E94DE1AA1960FB616
:10364000F894DEBF0FBECDBFDF91CF911F910F91D8
:10365000BF90AF909F908F900895E95CE1CFCF939A
:10366000DF930E94DE1AEC018FE292E00E94DE1AE4
:103670008C0F9D1FDF91CF9108950C94DE1ABC0131
:10368000990F880B990B4AE00C94EB1ADF92EF929A
:10369000FF920F931F93CF93DF930091BC03109180
:1036A000BD03085211092091BA033091BB03F12CDC
:1036B000E12C48E250E070E060E082EB93E00E9491
:1036C000651481E08093C6038093C70385E090E092
:1036D0009093BF038093BE038DE290E09093C1036B
:1036E0008093C003C0919103C295C07FC03120F484
:1036F00082E392E00E943D1B6C2F70E090E080E03E
:1037000040E10E94EB1A84E392E00E943D1BD0E06E
:10371000C75FDC4F7E0110E000E0F701D1907F0130
:10372000FFE0FD1520F082E392E00E943D1B6D2D2D
:1037300070E090E080E040E10E94EB1A85E392E0C7
:103740000E943D1B0F5F1F4F0031110531F787E3CA
:1037500092E00E943D1B10E000E0699180EE860F30
:103760008F3508F060C082EB93E00E94560C0F5F2B
:103770001F4F0031110589F78091BC039091BD0363
:103780000F9725E030E03093BF032093BE03909362
:10379000C1038093C0038DE392E00E943D1B8091A2
:1037A000BC039091BD030F972091BA033091BB03E6
:1037B000225331093093BF032093BE039093C1037A
:1037C0008093C00384E492E00E943D1B81E08093DB
:1037D000C6038093C7038091BC039091BD030F97EC
:1037E0002AE030E03093BF032093BE039093C103DF
:1037F0008093C0038BE492E00E943D1B8091910373
:1038000090E001960E943F1B81E592E00E943D1BE3
:1038100088E090E0DF91CF911F910F91FF90EF90A2
:10382000DF900C943F1B8BE392E00E943D1B9FCFE7
:103830000E94132B1F93CF93DF9385ED8093BC00E1
:103840008091990290919A02A0919B02B0919C0262
:103850000796A11DB11D23E0B695A795979587956D
:103860002A95D1F72091BC0024FD03C01092E102FB
:1038700052C04091990250919A0260919B027091BE
:103880009C02452B462B472B69F30097A105B105F8
:1038900041F02AE22A95F1F700C00197A109B10988
:1038A000E1CF80919802C1E0C0939702882399F1FB
:1038B000D091B8001091BA008091BC008A7B8093AF
:1038C000BC0060E084E10E946B0860E085E10E943A
:1038D0006B081092E102C093E3021092E20261E0F1
:1038E00084E10E946B0861E085E10E946B08809191
:1038F000B9008E7F8093B9008091B9008D7F80934D
:10390000B90088E48093B80085E48093BC001093EC
:10391000BA00D093B800DF91CF911F9108951F9204
:103920000F920FB60F9211242F933F938F939F9373
:10393000AF93BF938091930390919403A0919503CB
:10394000B09196033091920323E0230F2D3758F561
:103950000196A11DB11D2093920380939303909330
:103960009403A0939503B09396038091970390914D
:103970009803A0919903B0919A030196A11DB11DDE
:103980008093970390939803A0939903B0939A031D
:10399000BF91AF919F918F913F912F910F900FBE4B
:1039A0000F901F90189526E8230F0296A11DB11DB8
:1039B000D2CF1F920F920FB60F9211240BB60F9217
:1039C0002F933F934F935F936F937F938F939F9327
:1039D000AF93BF93EF93FF938091B900887F8036B8
:1039E00009F44DC008F040C0883209F4A7C028F59A
:1039F000803109F49BC0C8F4882309F4F7C08830EB
:103A000009F494C0FF91EF91BF91AF919F918F9175
:103A10007F916F915F914F913F912F910F900BBECE
:103A20000F900FBE0F901F901895883109F486C033
:103A3000803241F78093E00214C0803409F49BC0C7
:103A400040F48033B9F38833E9F68093E00285ECE3
:103A5000AEC0803509F483C0883509F494C0883439
:103A600089F60E941A1CCECF883909F48AC038F52D
:103A7000883729F050F4883611F0803719F683E042
:103A80008093E1021092DF0255C0883809F479C0B2
:103A9000803919F0803809F0B5CF8091DF0280328B
:103AA00008F06FC0E091DF0281E08E0F8093DF02AB
:103AB0008091BB00F0E0E154FD4F80833BC0803B30
:103AC00039F0D0F4803A09F477C0883A09F09ACFF7
:103AD00084E08093E1021092BE021092BD02F0E0F9
:103AE000E0E019958091BD0281110FC081E08093C3
:103AF000BD0210929D0209C0803C09F4A8CF883C09
:103B000009F4A5CF883B09F07DCFE091BE0281E0AA
:103B10008E0F8093BE02F0E0E356FD4F80818093CC
:103B2000BB009091BE028091BD0229C08091060326
:103B30008093BB0085EC8093BC0064CF909105031B
:103B400080910403981758F5E091050381E08E0FEA
:103B500080930503F0E0EC51FD4F8081E9CFE091C7
:103B6000050381E08E0F809305038091BB00F0E098
:103B7000EC51FD4F808390910503809104039817C9
:103B8000C8F285E8D8CFE091050381E08E0F8093DD
:103B900005038091BB00F0E0EC51FD4F80838091E4
:103BA000E30281115ECF81E08093E20284EA809398
:103BB000BC001092E10226CF85EC8093BC001092ED
:103BC000E1028091DF02803230F4E091DF02F0E028
:103BD000E154FD4F10826091DF0270E08FEB92E0C4
:103BE000F0E0E0E019951092DF020CCF1092E002B5
:103BF00038CF20E038EF3093C5032093C4033093CF
:103C0000C3032093C2030E942F1BFFCFE2EBF3E01C
:103C10001382128220EF30E03583248380E491E028
:103C2000978386833187208793878287168A1586B4
:103C300014861786168681E0858B848B2FEF3FEFE5
:103C4000338B228B318B208B878B108E128E118EB3
:103C500087E092E091838083EAEAF3E089E382835C
:103C600088E3848389E0838388E085838CE291E024
:103C7000978386838AE090E09183808360E085E388
:103C80000E94F708EDEEFEE0E491ACE9B3E0EC93BE
:103C9000E7EAFEE0E491F0E0EE0FFF1FE85AF14F93
:103CA0008591949112969C938E9311971B961C92DA
:103CB0001B971D961C921D971C961C921C971A967A
:103CC0001C921A9719961C92199718961C9218977D
:103CD00017961C92179716961C92169715961C927B
:103CE000159714961C92149713961C920895CF93CF
:103CF000DF9300D000D000D0CDB7DEB7789484B584
:103D0000826084BD84B5816084BD85B5826085BDD7
:103D100085B5816085BD80916E00816080936E0065
:103D20001092810080918100826080938100809157
:103D30008100816080938100809180008160809308
:103D400080008091B10084608093B1008091B000C8
:103D500081608093B0008091910082608093910097
:103D600080919100816080939100809190008160AA
:103D7000809390008091A10082608093A100809147
:103D8000A10081608093A1008091A0008160809358
:103D9000A000809121018260809321018091210106
:103DA00081608093210180912001816080932001B6
:103DB00080917A00846080937A0080917A0082609A
:103DC00080937A0080917A00816080937A0080915C
:103DD0007A00806880937A001092C10060E090E0E1
:103DE00080E00E9428127C01883024E5920779F156
:103DF0008032944561F189E8E816F80609F440C17B
:103E000060E087E690E00E94281237E4E32E33E872
:103E1000F32E87349744D9F08FEE90E00E94371349
:103E20007B016732734999F081EA90E00E94181390
:103E300023E6E22E29E1F22E6130E1E67E0739F039
:103E40006F3F7607C1F5A6E2EA2EA5E1FA2E0E94A1
:103E5000F9111092CE031092CD03F092D203E092AA
:103E6000D103E1E3EE16E0E8FE0609F493C508F09D
:103E7000EBC123E5E21620E2F20609F4E5C508F0FD
:103E800072C181E1E81685E1F80609F4CFC208F0B5
:103E900022C1A9E9EA16F10409F48CC508F004C1AD
:103EA00080E091E1EA94EF2809F40CC11092B70385
:103EB0001092B603B8C261152FEF720729F4F0E231
:103EC000EF2EF5E1FF2EC3CF91EAE92E95E0F92E12
:103ED0006115704F09F4BBCF8FEB90E00E94371350
:103EE0007B0187E5E81683E8F80609F4B0CF91E88E
:103EF000E91694E9F90609F4AACFA1E1EA16A5E1C9
:103F0000FA0609F4A4CFB0E2EB16B5E1FB06B9F26C
:103F1000E6E2EE16E5E1FE0609F495CFF1E8EF16CC
:103F2000F5E1FF0609F493CFE11424E1F20609F468
:103F3000ACC084ED90E00E9418137B0160317345A2
:103F400009F485CF87ED90E00E9418137B0181E38F
:103F5000E81680E8F80609F47ACF8EEF90E00E9428
:103F60001813672F782F892F99277B0193E5E9167E
:103F700090E2F90609F46BCF84E090E00E941813F8
:103F80007B01833E31F4672B59F5E12CB3EEFB2E18
:103F90005ECF811125C06115704811F58091000236
:103FA00090910102A091020289839A83AB83AE01B2
:103FB0004F5F5F4F63E089EB90E00E945A1060E032
:103FC00080ED90E00E94281279E9E72EF12C8939E2
:103FD00009F43DCF8039E1F460E9E62EFE2C37CFBD
:103FE000B6E2EB16B5E1FB0609F42DCFE0EFEE16D5
:103FF000E9E8FE0609F44EC0F2E5EF16F5E8FF0623
:1040000009F44DC021E1E2162CEAF20609F41FCFB3
:1040100083ED90E00E941813672F782F892F99273E
:104020007B016336714909F412CF83ED90E00E9461
:104030001813872FE62EF72E99E2E91692E3F90678
:1040400009F405CF8359823008F401CF783909F497
:10405000FECE773709F4FBCE763109F4F8CEA3ED26
:10406000EA16F10409F4F3CEB3EDEB16FB0609F4FE
:10407000EECE60E090E080E00E9428127C01E7CE66
:1040800049E8E42E42E1F42EE2CE84E1E82E88E60F
:10409000F82EDDCEA5E3EA2EA7E7FA2ED8CEF9E872
:1040A000EF2EF7E7FF2ED3CEF4E5EF16F1E0FF0693
:1040B00009F4ADC125E0E21625E1F20609F0F6CEDD
:1040C00084E090E19093D0038093CF0368ED70E09B
:1040D00086E29BE0A6C131E8E31635E1F30609F478
:1040E000BFC4C8F490E2E91695E1F90609F4FBC3F0
:1040F000A6E2EA16A5E1FA0609F0D8CE83E194E03B
:104100009093D0038093CF030CE010E065EDE62E92
:1041100068E0F62EA3C1B2E0EB16B6E1FB0609F4A7
:1041200086C4E3E6EE16E9E1FE0609F0BFCE81E0C3
:104130008093080383E59AE09093D0038093CF03A4
:1041400080EE91E09093B9038093B80380E293E00E
:104150009093B7038093B60303E510E052E8E52E91
:1041600058E0F52E7BC1F9E0EF16F8E6FF0609F4FA
:104170003AC438F535E3E31635E4F30609F4C0C371
:1041800098F499E2E91692E3F90609F08FCE83E0FC
:1041900096E09093D0038093CF0300E410E042E4D4
:1041A000E42E48E0F42E5AC1A0E1EA16A3E5FA068F
:1041B00009F4B1C3B8E0EB16B4E5FB0609F480CF0F
:1041C00075CEE9E8EE16E7E7FE0609F4D6C3B8F4C3
:1041D00024E1E21628E6F20609F4B6C333E8E31652
:1041E00037E7F30609F062CE82E091E19093D003C5
:1041F0008093CF0368E870E08EEF9BE012C183E903
:10420000E81687E7F80609F460C496E9E91697E727
:10421000F90609F04BCE83E094E09093D0038093AD
:10422000CF0380EE91E09093B9038093B80380E4CC
:1042300091E09093B7038093B6030DE010E032EB6A
:10424000E32E36E0F32E0AC1A8E3EA16A3E9FA0644
:1042500009F400C408F05DC0E5E2EE16E3E9FE06ED
:1042600009F446C090F520E9E216F20609F49FC36E
:10427000F8F487E5E81683E8F80609F017CE83E03E
:1042800094E19093D0038093CF0380EE91E09093DC
:10429000B9038093B80380E491E09093B7038093CF
:1042A000B60302E010E0B8EEEB2EB7E0FB2ED6C06E
:1042B00092E0E91693E9F90609F4C9C3A0E2EA1607
:1042C000A3E9FA0609F4FCCEF1CDB9E2EB16B3E9A5
:1042D000FB0609F4C2C378F4F7E2EF16F3E9FF0630
:1042E00009F48CC328E2E21623E9F20609F0DECDD8
:1042F00080E091E17AC331E3E31633E9F30631F06C
:1043000085E3E81683E9F80609F0D0CD80E090E176
:104310006CC399E8E91694E9F90608F042C0A7E8E9
:10432000EA16A4E9FA0608F0B7C3B1E8EB16B4E957
:10433000FB0609F4AEC3B0F4F0E4EF1AF3E9FF0AA8
:1043400022E0E216F10408F0B1CD83E194E090930D
:10435000D0038093CF0305E610E06FE3E62E67E01D
:10436000F62E7CC036E8E31634E9F30609F09ECD5C
:1043700083E094E09093D0038093CF0380EE91E0AC
:104380009093B9038093B80380E491E09093B703CE
:104390008093B6030BE310E04FEBE42E46E0F42EDF
:1043A0005DC089E0E81685EBF80609F48EC3C0F419
:1043B00083E194E1A1E1EA16ACEAFA06E9F0B5E09E
:1043C000EB16B5EBFB0609F071CD88E090E1909318
:1043D000D0038093CF0360EB70E08AEA99E021C0BC
:1043E000E5E0EE16E5ECFE0681F383E19EE0E114E4
:1043F000F3EEFF0609F05ACD9093D0038093CF03DC
:1044000003E010E074EAE72E77E0F72E27C082E0A1
:1044100090E19093D0038093CF036CE970E082E247
:104420009DE00E946B13F12CE12C18C083E090E01A
:104430009093D0038093CF0380EE91E09093B903E3
:104440008093B80380E491E09093B7038093B60320
:1044500003E010E0E7EEEE2EE8E0FE2E2091D00320
:10446000822F82958F7090E0817099279093D4036A
:104470008093D303E114F10481F069E070E08EE7EA
:1044800096E00E94AE0FB801C7010E94AE0F66E031
:1044900070E088E796E00E94AE0F60E082EB93E068
:1044A0000E94491860E082EB93E00E948D13809196
:1044B000D1039091D2038838944909F0DAC110925F
:1044C000070320EE3FEF50E040E070E060E082EB59
:1044D00093E00E94DF16E090DD03F090DE03809110
:1044E000CF0380FF03C09EE2E92EF12C8091D1031F
:1044F0009091D2038230964119F48EE2E82EF12C8D
:1045000010E000E030E020E050E040E070E060E0EB
:1045100082EB93E00E94D0138091CF0380FD10C006
:1045200070E060E08091D9039091DA030E94191144
:1045300070E060E08091DB039091DC030E94191130
:104540008B988A9880910201877880930201A598C0
:104550008EB1877C8EB9409102018F2D90E09C0135
:1045600005E0220F331F0A95E1F72076242B2093D4
:1045700002014EB19C01220F331F220F331F207303
:10458000242B2EB944B39C01220F331F2072242BFD
:1045900024BB4EB19C0135952795359527952870FC
:1045A000242B2EB920910201E3E095958795EA9599
:1045B000E1F78871822B809302018998899A809112
:1045C0000201877880930201A5988EB1877C8EB90D
:1045D00040910201C7019701F5E0220F331FFA95C0
:1045E000E1F72076242B209302014EB19701220F90
:1045F000331F220F331F2073242B2EB944B397018E
:10460000220F331F2072242B24BB4EB19701359506
:104610002795359527952870242B2EB920910201D6
:1046200003E0959587950A95E1F78871822B809331
:1046300002018998899A8A9A8091010187788093EA
:1046400001019D988DB1877C8DB94091CF03509128
:10465000D0038091D1039091D20346FD13C0889A74
:10466000889888988898209100012CB122B32CB1A9
:1046700020910001889A40FD05C08938A2E19A077F
:1046800009F036C28131954161F4889A88988898FA
:104690008898809100018CB182B38CB18091000127
:1046A000889ABA0164707727889A88988898889839
:1046B00044FF40C2209100018CB1F2B3ECB1909163
:1046C000000130E055E0359527955A95E1F72370C4
:1046D000869586958C70822B2F2F26952071822BA4
:1046E000F4E0EF9F900111242072822BA8E09A9FA2
:1046F00090011124207C822B889A889A8898889827
:104700008898209100019CB1A2B3FCB1E091000116
:1047100030E0B5E035952795BA95E1F72370969589
:1047200096959C70922B2A2F26952071922BB4E09F
:10473000FB9F900111242072922BF8E0EF9F9001D3
:104740001124207C922B889A889A88988898889837
:1047500020910001ECB0A2B3FCB1E091000130E087
:1047600015E0359527951A95E1F72370E694E694C0
:104770003E2D3C70E32EE22A2A2F26952071E22A54
:10478000A4E0FA9F900111242072E22AB8E0EB9F86
:1047900090011124207C2E29889AE92FF0E0672BC4
:1047A00009F4B3C1E22EF12CFE2CEE24EE2428EF06
:1047B000F22203E0EE0FFF1F0A95E1F7E07EF770AB
:1047C000EE2AFF2A869586958695E82A809107032A
:1047D000882399F0C701E5E096958795EA95E1F77A
:1047E000807299279701369527952F713327822B51
:1047F000932BF0ECEF22E82AF92A889A8B9A809181
:1048000001018867809301019D9A8DB188638DB9FC
:1048100040FD14C00091BC031091BD03015011096B
:104820002091BA033091BB032150310950E040E0A0
:1048300070E060E082EB93E00E94D0132FE1E2167B
:104840002FEFF206B1F486E08983AE014F5F5F4F30
:1048500061E08AE390E00E945A108091CF0390912A
:10486000D0038F7E9093D0038093CF0381E0809319
:10487000070361E082EB93E00E94491870E060E07A
:1048800082EB93E00E94C11A80EE97E09093C303FD
:104890008093C2031092C5031092C40382E08093F8
:1048A000C6038093C7038AE090E09093BF03809390
:1048B000BE039093C1038093C00383E592E00E94FE
:1048C0002F1B8091A903811104C00E94320881111D
:1048D000A5C11092A7031092A9031092A80384E621
:1048E00092E00E94F91D83E194E09093D0038093BD
:1048F000CF0306E010E071EEE72E78E0F72EAECDA4
:1049000080E090E19093D0038093CF036CE970E056
:1049100086E89CE086CD83E19EE09093D00380936F
:10492000CF0380EE91E09093B9038093B80380E4C5
:1049300091E09093B7038093B60302E010E030E477
:10494000E32E38E0F32E8ACD83E094E09093D003F9
:104950008093CF0380EE91E09093B9038093B803E6
:1049600080E491E09093B7038093B60303E010E0F6
:104970002DE3E22E28E0F22E71CD83E194E09093B6
:10498000D0038093CF0301E410E09CEFE92E97E081
:10499000F92E64CD83E194E19093D0038093CF030B
:1049A00002E110E08AEEE82E87E0F82E57CD83E191
:1049B00094E167CC83E194E19093D0038093CF039B
:1049C00080EE91E09093B9038093B80380E491E086
:1049D0009093B7038093B6030DE110E0ABECEA2EA1
:1049E000A7E0FA2E3BCD82E091E19093D003809333
:1049F000CF036CEC70E08AE59AE013CD83E094E09D
:104A00009093D0038093CF0380E991E09093B90312
:104A10008093B80380EF90E09093B7038093B60340
:104A20000EE110E0FDEAEF2EF7E0FF2E17CD83E058
:104A300094E09093D0038093CF0306E010E0E7EA80
:104A4000EE2EE7E0FE2E0ACD87E194E1D5CC83E09F
:104A500094E0D2CC83E194E0CFCC83E096E1CCCC5F
:104A600083E194E09093D0038093CF0380EE91E0B4
:104A70009093B9038093B80380E491E09093B703D7
:104A80008093B60305E410E05AEFE52E56E0F52ECC
:104A9000E5CC87E094E0E6CF83E194E09093D00307
:104AA0008093CF0380EE91E09093B9038093B80395
:104AB00080E491E09093B7038093B6030BE210E09B
:104AC00027E8E22E26E0F22EC9CC80E090E1909318
:104AD000D0038093CF0360EC70E08AEE98E00E94F0
:104AE0006B1380E991E09093B9038093B8039BCC5A
:104AF000889A889888988898209100012CB122B3D0
:104B00002CB120910001889ABDCDE82EF12CFE2C0D
:104B1000EE24EE2438EFF322B3E0EE0FFF1FBA9538
:104B2000E1F7E07EF770EE2AFF2A26952695269576
:104B3000E22A4CCE909100010CB112B3BCB1A0910D
:104B40000001889A889A889888988898209100010E
:104B5000ECB1E2B2DCB08091000130E055E0359577
:104B600027955A95E1F723703327F0E0F595E795FF
:104B7000F595E795EC70FF272E2B3F2BF12CF59444
:104B8000E794E0E1EE22FF24E22AF32AF4E0DF9E3C
:104B90009001112420723327E22AF32A28E0829F11
:104BA000F0011124E07CFF27EE2AFF2A889A892F42
:104BB00090E0F5E095958795FA95E1F78370069575
:104BC00006950C70802B16951071812B94E0B99F7F
:104BD000900111242072822BE8E0AE9FD0011124B5
:104BE000A07C8A2BF82A43FF03C0FE24EF24FE2476
:104BF000672B09F4EBCDC701807E97709701232FB7
:104C00003327269526952695822B932BFE2CEE2472
:104C1000FF0CFF0CFF0CE82AF92AD8CD80EF0E9488
:104C2000080801E0E12CD12C11E00E94E307F82EE6
:104C30000E94E30731E0F3122DC0813009F049C032
:104C4000113408F446CED092A703D11003C081E0FE
:104C50008093A90380919F03882309F43ACEEFE95A
:104C6000F3E079E8E72E73E0F72E81E993E087011E
:104C70002191D8012D938D018A179B07C9F7809147
:104C80008903A9E8B3E028E0E0E08930C1F186E7D4
:104C900092E027CEEE2DF0E0F81211C08091A7032C
:104CA0001817A8F4DF01A456BC4F13968C918023EB
:104CB00081F4F12C193010F41093A803D12EE4568E
:104CC000FC4F8381902F9095892383830BC08113A0
:104CD000F0CFEE2DF0E0E456FC4F8381802B8383F0
:104CE000FF24F3948F2D0E94B3071F5F000F11F470
:104CF000E39401E087E08E1508F097CFA1CF215013
:104D000089F08D918E27E82FEF70F0E0E254F24F9A
:104D10009491E82FE295EF70F0E0E253F24FE491C6
:104D2000E927EDCF809190038E1719F081E892E08A
:104D3000D8CD8FEF97E09093C5038093C4039093F1
:104D4000C3038093C2038EE892E00E942F1B80EE83
:104D500097E09093C5038093C4039093C30380931B
:104D6000C2030E94320885E50E940808F70181917C
:104D70007F010E9408080E151F05C1F780EF0E94F1
:104D8000080880E00E94080880E00E94080809E006
:104D900013E069E8A62E63E0B62E58E0C52ED12CAC
:104DA000F12CEE24E3940E94E3078111FE28EE0C1F
:104DB000F1E0CF1AD108B9F7D801FD928D01AA16FA
:104DC000BB0659F70E94461B66246A9443E0742E82
:104DD0006091AF0370E0FB01EE58F14FE4908091D9
:104DE000AC03A82FB0E0FD01EE58F14F04912091E3
:104DF000AE0330E0F901EE58F14FD4904091AD038D
:104E000050E0FA01EE58F14FF490FB01E854F14FF5
:104E1000C490FD01E854F14F9490F901E854F14F2A
:104E2000B490FA01E854F14FB491BC8360E00E9461
:104E3000F70860E08091AD030E94F70810E0000FD2
:104E4000111F0850124FF801A591B4918C91E92DD2
:104E5000E095ED838E238C93EF2DF0E0EE0FFF1F96
:104E60009F012850324F1901F901A591B4919C91ED
:104E70008C81809589238C9361E08091AF030E949F
:104E8000F70861E08091AE030E94F708F12CEE0C68
:104E9000FF1CC7018850924F7C01FC01A591B49181
:104EA0008C918C298C93ED2DF0E0EE0FFF1FE850D4
:104EB000F24FA591B4912C91B094B222BC92809102
:104EC000AC030E942809998788878091AC030E94CF
:104ED00028095C01D301A81BB90BBF83AE8360E036
:104EE0008091AF030E94F70860E08091AE030E94BA
:104EF000F708F701A591B4918C91C0948C218C9303
:104F000061E08091AC030E94F708F801A591B4918B
:104F1000EC919E2A9C9261E08091AD030E94F7087B
:104F20008091AE030E9428094C018091AE030E943B
:104F300028092C018816990639F4DD24D394E885D4
:104F4000F985AE16BF0609F0D12C61E08091AF0360
:104F50000E94F708F701A591B491EC91CE22CC9272
:104F6000F101A591B491EC91AC80AE2AAC92F8011C
:104F7000A591B4918C913D8038223C9260E0809163
:104F8000AC030E94F7088091AE030E9428098C01AF
:104F90008091AC030E942809BC01E090B003F0901E
:104FA000B103E114F10409F4BDC0072E000C880B15
:104FB000990B0E94122A4B015C01B801110F880B5A
:104FC000990B0E94122A9B01AC01C501B4010E94F9
:104FD000682920E030E040E85FE30E94FB284B01B5
:104FE0005C012E813F81B901330F880B990B0E9420
:104FF000122AA50194010E949E2A4B015C01B7016F
:1050000090E080E00E94102AA50194010E949E2A4F
:1050100020E030E040E85AE30E949E2A0E94DA290C
:105020008B01D11002C010E000E061E088E30E9433
:10503000F70861E089E30E94F708085C1109013272
:10504000134008F067C0A091BA03B091BB038E81F2
:105050009F819C01990F440B550B26593109410939
:1050600051090E94C22822E033E040E050E00E9453
:1050700098288901E090BC03F090BD0393012419A6
:105080003509032E000C440B550B285731094109F3
:105090005109D7010E94C22824E333E040E050E0E8
:1050A0000E94982869010C331105ACF497E2E91AC3
:1050B000F1082E153F057CF080919103882359F06B
:1050C0008150809391030E94461B6AEF70E080E05C
:1050D00090E00E946A098091BA039091BB03CB973C
:1050E00008171907BCF08091BC039091BD03879706
:1050F000C816D9067CF080919103873058F48F5FF1
:10510000809391030E94461B6AEF70E080E090E07C
:105110000E946A09A0E0B0E0AB2B09F459CE0E94CE
:10512000000056CE601B710B8301061B170B79CF55
:10513000052E97FB1EF400940E94AF2857FD07D060
:105140000E94CA2807FC03D04EF40C94AF28509557
:105150004095309521953F4F4F4F5F4F0895909563
:105160008095709561957F4F8F4F9F4F08950E9456
:10517000EC28A59F900DB49F900DA49F800D911DCC
:1051800011240895B7FF0C94B7280E94B728821BFA
:10519000930B0895A1E21A2EAA1BBB1BFD010DC0A3
:1051A000AA1FBB1FEE1FFF1FA217B307E407F507D7
:1051B00020F0A21BB30BE40BF50B661F771F881FB3
:1051C000991F1A9469F760957095809590959B0149
:1051D000AC01BD01CF010895A29FB001B39FC001F2
:1051E000A39F700D811D1124911DB29F700D811D13
:1051F0001124911D08955058BB27AA270E941329F6
:105200000C94642A0E94562A38F00E945D2A20F0ED
:1052100039F49F3F19F426F40C94532A0EF4E095C8
:10522000E7FB0C944D2AE92F0E94752A58F3BA1710
:10523000620773078407950720F079F4A6F50C94AC
:10524000972A0EF4E0950B2EBA2FA02D0B01B90171
:1052500090010C01CA01A0011124FF27591B99F0EC
:10526000593F50F4503E68F11A16F040A22F232FF8
:10527000342F4427585FF3CF469537952795A79548
:10528000F0405395C9F77EF41F16BA0B620B730BEF
:10529000840BBAF09150A1F0FF0FBB1F661F771F60
:1052A000881FC2F70EC0BA0F621F731F841F48F415
:1052B000879577956795B795F7959E3F08F0B0CF9E
:1052C0009395880F08F09927EE0F97958795089585
:1052D0000E947C290C94642A0E945D2A58F00E9446
:1052E000562A40F029F45F3F29F00C944D2A5111C1
:1052F0000C94982A0C94532A0E94752A68F39923D7
:10530000B1F3552391F3951B550BBB27AA276217C1
:105310007307840738F09F5F5F4F220F331F441FCE
:10532000AA1FA9F335D00E2E3AF0E0E832D0915002
:105330005040E695001CCAF72BD0FE2F29D0660FEF
:10534000771F881FBB1F261737074807AB07B0E832
:1053500009F0BB0B802DBF01FF2793585F4F3AF038
:105360009E3F510578F00C944D2A0C94982A5F3F8B
:10537000E4F3983ED4F3869577956795B795F795BE
:105380009F5FC9F7880F911D9695879597F90895A6
:10539000E1E0660F771F881FBB1F62177307840742
:1053A000BA0720F0621B730B840BBA0BEE1F88F751
:1053B000E09508950E94E1296894B1110C94982A0F
:1053C00008950E947D2A88F09F5798F0B92F992759
:1053D000B751B0F0E1F0660F771F881F991F1AF0E0
:1053E000BA95C9F714C0B13091F00E94972AB1E084
:1053F00008950C94972A672F782F8827B85F39F083
:10540000B93FCCF3869577956795B395D9F73EF478
:1054100090958095709561957F4F8F4F9F4F089520
:10542000E89409C097FB3EF490958095709561953E
:105430007F4F8F4F9F4F9923A9F0F92F96E9BB27F4
:105440009395F695879577956795B795F111F8CF70
:10545000FAF4BB0F11F460FF1BC06F5F7F4F8F4FDB
:105460009F4F16C0882311F096E911C0772321F0D1
:105470009EE8872F762F05C0662371F096E8862F69
:1054800070E060E02AF09A95660F771F881FDAF7C0
:10549000880F9695879597F9089597F99F6780E803
:1054A00070E060E008959FEF80EC089500240A9476
:1054B0001616170618060906089500240A941216EF
:1054C0001306140605060895092E0394000C11F422
:1054D000882352F0BB0F40F4BF2B11F460FF04C0CF
:1054E0006F5F7F4F8F4F9F4F089557FD9058440F28
:1054F000551F59F05F3F71F04795880F97FB991F33
:1055000061F09F3F79F087950895121613061406EF
:10551000551FF2CF4695F1DF08C01616170618067C
:10552000991FF1CF86957105610508940895E89457
:10553000BB2766277727CB0197F908950E94B12AE8
:105540000C94642A0E94562A38F00E945D2A20F0AA
:10555000952311F00C944D2A0C94532A11240C9489
:10556000982A0E94752A70F3959FC1F3950F50E019
:10557000551F629FF001729FBB27F00DB11D639F05
:10558000AA27F00DB11DAA1F649F6627B00DA11DAB
:10559000661F829F2227B00DA11D621F739FB00D51
:1055A000A11D621F839FA00D611D221F749F3327C1
:1055B000A00D611D231F849F600D211D822F762F5A
:1055C0006A2F11249F5750409AF0F1F088234AF037
:1055D000EE0FFF1FBB1F661F771F881F91505040A3
:1055E000A9F79E3F510580F00C944D2A0C94982AFF
:1055F0005F3FE4F3983ED4F3869577956795B7952A
:10560000F795E7959F5FC1F7FE2B880F911D969543
:10561000879597F90895EE0FFF1F881F8BBF07909E
:10562000F691E02D199481E090E0F8940C94182BF9
:04563000F894FFCF1C
:10563400FF835700000000560C9D09BE1ABD1ADFF7
:1056440016F109FB0ED30EEF0EE30E020FF109491A
:10565400188D13A91A961A6514C11A870D280D0DF1
:105664000A0030003A2000207C20002E003C20500C
:10567400726576004E657874203E0050616765203F
:10568400002F0044656C6C2050535520536E69669E
:10569400666572004E6F204F6E65576972652064AF
:1056A4006576696365004E6F742044533235303239
:1056B40000524F4D20435243204641494C00524F23
:0656C4004D204F4B0000D9
:00000001FF
